{
    "_format": "hh-sol-artifact-1",
    "contractName": "Domains",
    "sourceName": "contracts/Domains.sol",
    "abi": [
        {
            "inputs": [
                {
                    "internalType": "string",
                    "name": "_tld",
                    "type": "string"
                }
            ],
            "stateMutability": "payable",
            "type": "constructor"
        },
        {
            "inputs": [],
            "name": "AlreadyRegistered",
            "type": "error"
        },
        {
            "inputs": [
                {
                    "internalType": "string",
                    "name": "name",
                    "type": "string"
                }
            ],
            "name": "InvalidName",
            "type": "error"
        },
        {
            "inputs": [],
            "name": "Unauthorized",
            "type": "error"
        },
        {
            "anonymous": false,
            "inputs": [
                {
                    "indexed": true,
                    "internalType": "address",
                    "name": "owner",
                    "type": "address"
                },
                {
                    "indexed": true,
                    "internalType": "address",
                    "name": "approved",
                    "type": "address"
                },
                {
                    "indexed": true,
                    "internalType": "uint256",
                    "name": "tokenId",
                    "type": "uint256"
                }
            ],
            "name": "Approval",
            "type": "event"
        },
        {
            "anonymous": false,
            "inputs": [
                {
                    "indexed": true,
                    "internalType": "address",
                    "name": "owner",
                    "type": "address"
                },
                {
                    "indexed": true,
                    "internalType": "address",
                    "name": "operator",
                    "type": "address"
                },
                {
                    "indexed": false,
                    "internalType": "bool",
                    "name": "approved",
                    "type": "bool"
                }
            ],
            "name": "ApprovalForAll",
            "type": "event"
        },
        {
            "anonymous": false,
            "inputs": [
                {
                    "indexed": true,
                    "internalType": "address",
                    "name": "from",
                    "type": "address"
                },
                {
                    "indexed": true,
                    "internalType": "address",
                    "name": "to",
                    "type": "address"
                },
                {
                    "indexed": true,
                    "internalType": "uint256",
                    "name": "tokenId",
                    "type": "uint256"
                }
            ],
            "name": "Transfer",
            "type": "event"
        },
        {
            "inputs": [
                {
                    "internalType": "address",
                    "name": "to",
                    "type": "address"
                },
                {
                    "internalType": "uint256",
                    "name": "tokenId",
                    "type": "uint256"
                }
            ],
            "name": "approve",
            "outputs": [],
            "stateMutability": "nonpayable",
            "type": "function"
        },
        {
            "inputs": [
                {
                    "internalType": "address",
                    "name": "owner",
                    "type": "address"
                }
            ],
            "name": "balanceOf",
            "outputs": [
                {
                    "internalType": "uint256",
                    "name": "",
                    "type": "uint256"
                }
            ],
            "stateMutability": "view",
            "type": "function"
        },
        {
            "inputs": [
                {
                    "internalType": "string",
                    "name": "",
                    "type": "string"
                }
            ],
            "name": "domains",
            "outputs": [
                {
                    "internalType": "address",
                    "name": "",
                    "type": "address"
                }
            ],
            "stateMutability": "view",
            "type": "function"
        },
        {
            "inputs": [
                {
                    "internalType": "string",
                    "name": "name",
                    "type": "string"
                }
            ],
            "name": "getAddress",
            "outputs": [
                {
                    "internalType": "address",
                    "name": "",
                    "type": "address"
                }
            ],
            "stateMutability": "view",
            "type": "function"
        },
        {
            "inputs": [],
            "name": "getAllNames",
            "outputs": [
                {
                    "internalType": "string[]",
                    "name": "",
                    "type": "string[]"
                }
            ],
            "stateMutability": "view",
            "type": "function"
        },
        {
            "inputs": [
                {
                    "internalType": "uint256",
                    "name": "tokenId",
                    "type": "uint256"
                }
            ],
            "name": "getApproved",
            "outputs": [
                {
                    "internalType": "address",
                    "name": "",
                    "type": "address"
                }
            ],
            "stateMutability": "view",
            "type": "function"
        },
        {
            "inputs": [
                {
                    "internalType": "address",
                    "name": "owner",
                    "type": "address"
                },
                {
                    "internalType": "address",
                    "name": "operator",
                    "type": "address"
                }
            ],
            "name": "isApprovedForAll",
            "outputs": [
                {
                    "internalType": "bool",
                    "name": "",
                    "type": "bool"
                }
            ],
            "stateMutability": "view",
            "type": "function"
        },
        {
            "inputs": [],
            "name": "isOwner",
            "outputs": [
                {
                    "internalType": "bool",
                    "name": "",
                    "type": "bool"
                }
            ],
            "stateMutability": "view",
            "type": "function"
        },
        {
            "inputs": [],
            "name": "name",
            "outputs": [
                {
                    "internalType": "string",
                    "name": "",
                    "type": "string"
                }
            ],
            "stateMutability": "view",
            "type": "function"
        },
        {
            "inputs": [
                {
                    "internalType": "uint256",
                    "name": "",
                    "type": "uint256"
                }
            ],
            "name": "names",
            "outputs": [
                {
                    "internalType": "string",
                    "name": "",
                    "type": "string"
                }
            ],
            "stateMutability": "view",
            "type": "function"
        },
        {
            "inputs": [],
            "name": "owner",
            "outputs": [
                {
                    "internalType": "address payable",
                    "name": "",
                    "type": "address"
                }
            ],
            "stateMutability": "view",
            "type": "function"
        },
        {
            "inputs": [
                {
                    "internalType": "uint256",
                    "name": "tokenId",
                    "type": "uint256"
                }
            ],
            "name": "ownerOf",
            "outputs": [
                {
                    "internalType": "address",
                    "name": "",
                    "type": "address"
                }
            ],
            "stateMutability": "view",
            "type": "function"
        },
        {
            "inputs": [
                {
                    "internalType": "string",
                    "name": "name",
                    "type": "string"
                }
            ],
            "name": "price",
            "outputs": [
                {
                    "internalType": "uint256",
                    "name": "",
                    "type": "uint256"
                }
            ],
            "stateMutability": "pure",
            "type": "function"
        },
        {
            "inputs": [
                {
                    "internalType": "string",
                    "name": "",
                    "type": "string"
                }
            ],
            "name": "records",
            "outputs": [
                {
                    "internalType": "string",
                    "name": "",
                    "type": "string"
                }
            ],
            "stateMutability": "view",
            "type": "function"
        },
        {
            "inputs": [
                {
                    "internalType": "string",
                    "name": "name",
                    "type": "string"
                }
            ],
            "name": "register",
            "outputs": [],
            "stateMutability": "payable",
            "type": "function"
        },
        {
            "inputs": [
                {
                    "internalType": "address",
                    "name": "from",
                    "type": "address"
                },
                {
                    "internalType": "address",
                    "name": "to",
                    "type": "address"
                },
                {
                    "internalType": "uint256",
                    "name": "tokenId",
                    "type": "uint256"
                }
            ],
            "name": "safeTransferFrom",
            "outputs": [],
            "stateMutability": "nonpayable",
            "type": "function"
        },
        {
            "inputs": [
                {
                    "internalType": "address",
                    "name": "from",
                    "type": "address"
                },
                {
                    "internalType": "address",
                    "name": "to",
                    "type": "address"
                },
                {
                    "internalType": "uint256",
                    "name": "tokenId",
                    "type": "uint256"
                },
                {
                    "internalType": "bytes",
                    "name": "_data",
                    "type": "bytes"
                }
            ],
            "name": "safeTransferFrom",
            "outputs": [],
            "stateMutability": "nonpayable",
            "type": "function"
        },
        {
            "inputs": [
                {
                    "internalType": "address",
                    "name": "operator",
                    "type": "address"
                },
                {
                    "internalType": "bool",
                    "name": "approved",
                    "type": "bool"
                }
            ],
            "name": "setApprovalForAll",
            "outputs": [],
            "stateMutability": "nonpayable",
            "type": "function"
        },
        {
            "inputs": [
                {
                    "internalType": "string",
                    "name": "name",
                    "type": "string"
                },
                {
                    "internalType": "string",
                    "name": "record",
                    "type": "string"
                }
            ],
            "name": "setRecord",
            "outputs": [],
            "stateMutability": "nonpayable",
            "type": "function"
        },
        {
            "inputs": [
                {
                    "internalType": "bytes4",
                    "name": "interfaceId",
                    "type": "bytes4"
                }
            ],
            "name": "supportsInterface",
            "outputs": [
                {
                    "internalType": "bool",
                    "name": "",
                    "type": "bool"
                }
            ],
            "stateMutability": "view",
            "type": "function"
        },
        {
            "inputs": [],
            "name": "symbol",
            "outputs": [
                {
                    "internalType": "string",
                    "name": "",
                    "type": "string"
                }
            ],
            "stateMutability": "view",
            "type": "function"
        },
        {
            "inputs": [],
            "name": "tld",
            "outputs": [
                {
                    "internalType": "string",
                    "name": "",
                    "type": "string"
                }
            ],
            "stateMutability": "view",
            "type": "function"
        },
        {
            "inputs": [
                {
                    "internalType": "uint256",
                    "name": "tokenId",
                    "type": "uint256"
                }
            ],
            "name": "tokenURI",
            "outputs": [
                {
                    "internalType": "string",
                    "name": "",
                    "type": "string"
                }
            ],
            "stateMutability": "view",
            "type": "function"
        },
        {
            "inputs": [
                {
                    "internalType": "address",
                    "name": "from",
                    "type": "address"
                },
                {
                    "internalType": "address",
                    "name": "to",
                    "type": "address"
                },
                {
                    "internalType": "uint256",
                    "name": "tokenId",
                    "type": "uint256"
                }
            ],
            "name": "transferFrom",
            "outputs": [],
            "stateMutability": "nonpayable",
            "type": "function"
        },
        {
            "inputs": [
                {
                    "internalType": "string",
                    "name": "name",
                    "type": "string"
                }
            ],
            "name": "valid",
            "outputs": [
                {
                    "internalType": "bool",
                    "name": "",
                    "type": "bool"
                }
            ],
            "stateMutability": "pure",
            "type": "function"
        },
        {
            "inputs": [],
            "name": "withdraw",
            "outputs": [],
            "stateMutability": "nonpayable",
            "type": "function"
        }
    ],
    "bytecode": "0x6080604052604051806108a0016040528061086b81526020016200537561086b9139600990805190602001906200003892919062000287565b506040518060400160405280600d81526020017f3c2f746578743e3c2f7376673e00000000000000000000000000000000000000815250600a90805190602001906200008692919062000287565b5060405162005be038038062005be08339818101604052810190620000ac9190620004d4565b6040518060400160405280601481526020017f537570657220446f6d61696e20536572766963650000000000000000000000008152506040518060400160405280600381526020017f534453000000000000000000000000000000000000000000000000000000000081525081600090805190602001906200013092919062000287565b5080600190805190602001906200014992919062000287565b50505080600890805190602001906200016492919062000287565b50620001b16040518060400160405280601881526020017f2573206e616d652073657276696365206465706c6f796564000000000000000081525082620001b860201b62001bb01760201c565b5062000622565b6200025a8282604051602401620001d192919062000582565b6040516020818303038152906040527f4b5c4277000000000000000000000000000000000000000000000000000000007bffffffffffffffffffffffffffffffffffffffffffffffffffffffff19166020820180517bffffffffffffffffffffffffffffffffffffffffffffffffffffffff83818316178352505050506200025e60201b60201c565b5050565b60008151905060006a636f6e736f6c652e6c6f679050602083016000808483855afa5050505050565b8280546200029590620005ec565b90600052602060002090601f016020900481019282620002b9576000855562000305565b82601f10620002d457805160ff191683800117855562000305565b8280016001018555821562000305579182015b8281111562000304578251825591602001919060010190620002e7565b5b50905062000314919062000318565b5090565b5b808211156200033357600081600090555060010162000319565b5090565b6000604051905090565b600080fd5b600080fd5b600080fd5b600080fd5b6000601f19601f8301169050919050565b7f4e487b7100000000000000000000000000000000000000000000000000000000600052604160045260246000fd5b620003a08262000355565b810181811067ffffffffffffffff82111715620003c257620003c162000366565b5b80604052505050565b6000620003d762000337565b9050620003e5828262000395565b919050565b600067ffffffffffffffff82111562000408576200040762000366565b5b620004138262000355565b9050602081019050919050565b60005b838110156200044057808201518184015260208101905062000423565b8381111562000450576000848401525b50505050565b60006200046d6200046784620003ea565b620003cb565b9050828152602081018484840111156200048c576200048b62000350565b5b6200049984828562000420565b509392505050565b600082601f830112620004b957620004b86200034b565b5b8151620004cb84826020860162000456565b91505092915050565b600060208284031215620004ed57620004ec62000341565b5b600082015167ffffffffffffffff8111156200050e576200050d62000346565b5b6200051c84828501620004a1565b91505092915050565b600081519050919050565b600082825260208201905092915050565b60006200054e8262000525565b6200055a818562000530565b93506200056c81856020860162000420565b620005778162000355565b840191505092915050565b600060408201905081810360008301526200059e818562000541565b90508181036020830152620005b4818462000541565b90509392505050565b7f4e487b7100000000000000000000000000000000000000000000000000000000600052602260045260246000fd5b600060028204905060018216806200060557607f821691505b602082108114156200061c576200061b620005bd565b5b50919050565b614d4380620006326000396000f3fe6080604052600436106101815760003560e01c80638da5cb5b116100d1578063bf40fac11161008a578063e985e9c511610064578063e985e9c5146105cc578063f2c298be14610609578063fb825e5f14610625578063fe2c61981461065057610181565b8063bf40fac114610529578063c1880a9814610566578063c87b56dd1461058f57610181565b80638da5cb5b146104195780638f32d59b1461044457806395d89b411461046f5780639791c0971461049a578063a22cb465146104d7578063b88d4fde1461050057610181565b80632d5514321161013e5780634622ab03116101185780634622ab0314610325578063541e771d146103625780636352211e1461039f57806370a08231146103dc57610181565b80632d551432146102ba5780633ccfd60b146102e557806342842e0e146102fc57610181565b806301ffc9a71461018657806306fdde03146101c3578063081812fc146101ee578063095ea7b31461022b57806323b872dd14610254578063264492351461027d575b600080fd5b34801561019257600080fd5b506101ad60048036038101906101a89190613095565b61068d565b6040516101ba91906130dd565b60405180910390f35b3480156101cf57600080fd5b506101d861076f565b6040516101e59190613191565b60405180910390f35b3480156101fa57600080fd5b50610215600480360381019061021091906131e9565b610801565b6040516102229190613257565b60405180910390f35b34801561023757600080fd5b50610252600480360381019061024d919061329e565b610886565b005b34801561026057600080fd5b5061027b600480360381019061027691906132de565b61099e565b005b34801561028957600080fd5b506102a4600480360381019061029f9190613466565b6109fe565b6040516102b19190613257565b60405180910390f35b3480156102c657600080fd5b506102cf610a47565b6040516102dc9190613191565b60405180910390f35b3480156102f157600080fd5b506102fa610ad5565b005b34801561030857600080fd5b50610323600480360381019061031e91906132de565b610b9b565b005b34801561033157600080fd5b5061034c600480360381019061034791906131e9565b610bbb565b6040516103599190613191565b60405180910390f35b34801561036e57600080fd5b5061038960048036038101906103849190613466565b610c5b565b6040516103969190613191565b60405180910390f35b3480156103ab57600080fd5b506103c660048036038101906103c191906131e9565b610d11565b6040516103d39190613257565b60405180910390f35b3480156103e857600080fd5b5061040360048036038101906103fe91906134af565b610dc3565b60405161041091906134eb565b60405180910390f35b34801561042557600080fd5b5061042e610e7b565b60405161043b9190613527565b60405180910390f35b34801561045057600080fd5b50610459610ea1565b60405161046691906130dd565b60405180910390f35b34801561047b57600080fd5b50610484610ef9565b6040516104919190613191565b60405180910390f35b3480156104a657600080fd5b506104c160048036038101906104bc91906135a2565b610f8b565b6040516104ce91906130dd565b60405180910390f35b3480156104e357600080fd5b506104fe60048036038101906104f9919061361b565b61103f565b005b34801561050c57600080fd5b50610527600480360381019061052291906136fc565b611055565b005b34801561053557600080fd5b50610550600480360381019061054b91906135a2565b6110b7565b60405161055d9190613257565b60405180910390f35b34801561057257600080fd5b5061058d6004803603810190610588919061377f565b611102565b005b34801561059b57600080fd5b506105b660048036038101906105b191906131e9565b6111dd565b6040516105c39190613191565b60405180910390f35b3480156105d857600080fd5b506105f360048036038101906105ee9190613800565b61132f565b60405161060091906130dd565b60405180910390f35b610623600480360381019061061e91906135a2565b6113c3565b005b34801561063157600080fd5b5061063a61192c565b604051610647919061394c565b60405180910390f35b34801561065c57600080fd5b50610677600480360381019061067291906135a2565b611b0a565b60405161068491906134eb565b60405180910390f35b60007f80ac58cd000000000000000000000000000000000000000000000000000000007bffffffffffffffffffffffffffffffffffffffffffffffffffffffff1916827bffffffffffffffffffffffffffffffffffffffffffffffffffffffff1916148061075857507f5b5e139f000000000000000000000000000000000000000000000000000000007bffffffffffffffffffffffffffffffffffffffffffffffffffffffff1916827bffffffffffffffffffffffffffffffffffffffffffffffffffffffff1916145b80610768575061076782611c4c565b5b9050919050565b60606000805461077e9061399d565b80601f01602080910402602001604051908101604052809291908181526020018280546107aa9061399d565b80156107f75780601f106107cc576101008083540402835291602001916107f7565b820191906000526020600020905b8154815290600101906020018083116107da57829003601f168201915b5050505050905090565b600061080c82611cb6565b61084b576040517f08c379a000000000000000000000000000000000000000000000000000000000815260040161084290613a41565b60405180910390fd5b6004600083815260200190815260200160002060009054906101000a900473ffffffffffffffffffffffffffffffffffffffff169050919050565b600061089182610d11565b90508073ffffffffffffffffffffffffffffffffffffffff168373ffffffffffffffffffffffffffffffffffffffff161415610902576040517f08c379a00000000000000000000000000000000000000000000000000000000081526004016108f990613ad3565b60405180910390fd5b8073ffffffffffffffffffffffffffffffffffffffff16610921611d22565b73ffffffffffffffffffffffffffffffffffffffff161480610950575061094f8161094a611d22565b61132f565b5b61098f576040517f08c379a000000000000000000000000000000000000000000000000000000000815260040161098690613b65565b60405180910390fd5b6109998383611d2a565b505050565b6109af6109a9611d22565b82611de3565b6109ee576040517f08c379a00000000000000000000000000000000000000000000000000000000081526004016109e590613bf7565b60405180910390fd5b6109f9838383611ec1565b505050565b600b818051602081018201805184825260208301602085012081835280955050505050506000915054906101000a900473ffffffffffffffffffffffffffffffffffffffff1681565b60088054610a549061399d565b80601f0160208091040260200160405190810160405280929190818152602001828054610a809061399d565b8015610acd5780601f10610aa257610100808354040283529160200191610acd565b820191906000526020600020905b815481529060010190602001808311610ab057829003601f168201915b505050505081565b610add610ea1565b610ae657600080fd5b600047905060003373ffffffffffffffffffffffffffffffffffffffff1682604051610b1190613c48565b60006040518083038185875af1925050503d8060008114610b4e576040519150601f19603f3d011682016040523d82523d6000602084013e610b53565b606091505b5050905080610b97576040517f08c379a0000000000000000000000000000000000000000000000000000000008152600401610b8e90613ca9565b60405180910390fd5b5050565b610bb683838360405180602001604052806000815250611055565b505050565b600d6020528060005260406000206000915090508054610bda9061399d565b80601f0160208091040260200160405190810160405280929190818152602001828054610c069061399d565b8015610c535780601f10610c2857610100808354040283529160200191610c53565b820191906000526020600020905b815481529060010190602001808311610c3657829003601f168201915b505050505081565b600c818051602081018201805184825260208301602085012081835280955050505050506000915090508054610c909061399d565b80601f0160208091040260200160405190810160405280929190818152602001828054610cbc9061399d565b8015610d095780601f10610cde57610100808354040283529160200191610d09565b820191906000526020600020905b815481529060010190602001808311610cec57829003601f168201915b505050505081565b6000806002600084815260200190815260200160002060009054906101000a900473ffffffffffffffffffffffffffffffffffffffff169050600073ffffffffffffffffffffffffffffffffffffffff168173ffffffffffffffffffffffffffffffffffffffff161415610dba576040517f08c379a0000000000000000000000000000000000000000000000000000000008152600401610db190613d3b565b60405180910390fd5b80915050919050565b60008073ffffffffffffffffffffffffffffffffffffffff168273ffffffffffffffffffffffffffffffffffffffff161415610e34576040517f08c379a0000000000000000000000000000000000000000000000000000000008152600401610e2b90613dcd565b60405180910390fd5b600360008373ffffffffffffffffffffffffffffffffffffffff1673ffffffffffffffffffffffffffffffffffffffff168152602001908152602001600020549050919050565b600e60009054906101000a900473ffffffffffffffffffffffffffffffffffffffff1681565b6000600e60009054906101000a900473ffffffffffffffffffffffffffffffffffffffff1673ffffffffffffffffffffffffffffffffffffffff163373ffffffffffffffffffffffffffffffffffffffff1614905090565b606060018054610f089061399d565b80601f0160208091040260200160405190810160405280929190818152602001828054610f349061399d565b8015610f815780601f10610f5657610100808354040283529160200191610f81565b820191906000526020600020905b815481529060010190602001808311610f6457829003601f168201915b5050505050905090565b60006003610fdc84848080601f016020809104026020016040519081016040528093929190818152602001838380828437600081840152601f19601f82011690508083019250505050505050612128565b101580156110375750600a61103484848080601f016020809104026020016040519081016040528093929190818152602001838380828437600081840152601f19601f82011690508083019250505050505050612128565b11155b905092915050565b61105161104a611d22565b83836122dd565b5050565b611066611060611d22565b83611de3565b6110a5576040517f08c379a000000000000000000000000000000000000000000000000000000000815260040161109c90613bf7565b60405180910390fd5b6110b18484848461244a565b50505050565b6000600b83836040516110cb929190613e1d565b908152602001604051809103902060009054906101000a900473ffffffffffffffffffffffffffffffffffffffff16905092915050565b600b8484604051611114929190613e1d565b908152602001604051809103902060009054906101000a900473ffffffffffffffffffffffffffffffffffffffff1673ffffffffffffffffffffffffffffffffffffffff163373ffffffffffffffffffffffffffffffffffffffff16146111a7576040517f82b4290000000000000000000000000000000000000000000000000000000000815260040160405180910390fd5b8181600c86866040516111bb929190613e1d565b908152602001604051809103902091906111d6929190612f00565b5050505050565b60606111e882611cb6565b611227576040517f08c379a000000000000000000000000000000000000000000000000000000000815260040161121e90613ea8565b60405180910390fd5b60006006600084815260200190815260200160002080546112479061399d565b80601f01602080910402602001604051908101604052809291908181526020018280546112739061399d565b80156112c05780601f10611295576101008083540402835291602001916112c0565b820191906000526020600020905b8154815290600101906020018083116112a357829003601f168201915b5050505050905060006112d16124a6565b90506000815114156112e757819250505061132a565b60008251111561131c578082604051602001611304929190613ef9565b6040516020818303038152906040529250505061132a565b611325846124bd565b925050505b919050565b6000600560008473ffffffffffffffffffffffffffffffffffffffff1673ffffffffffffffffffffffffffffffffffffffff16815260200190815260200160002060008373ffffffffffffffffffffffffffffffffffffffff1673ffffffffffffffffffffffffffffffffffffffff16815260200190815260200160002060009054906101000a900460ff16905092915050565b600073ffffffffffffffffffffffffffffffffffffffff16600b83836040516113ed929190613e1d565b908152602001604051809103902060009054906101000a900473ffffffffffffffffffffffffffffffffffffffff1673ffffffffffffffffffffffffffffffffffffffff161461143c57600080fd5b60003073ffffffffffffffffffffffffffffffffffffffff1663fe2c619884846040518363ffffffff1660e01b8152600401611479929190613f4a565b602060405180830381865afa158015611496573d6000803e3d6000fd5b505050506040513d601f19601f820116820180604052508101906114ba9190613f83565b9050803410156114ff576040517f08c379a00000000000000000000000000000000000000000000000000000000081526004016114f690613ffc565b60405180910390fd5b600073ffffffffffffffffffffffffffffffffffffffff16600b8484604051611529929190613e1d565b908152602001604051809103902060009054906101000a900473ffffffffffffffffffffffffffffffffffffffff1673ffffffffffffffffffffffffffffffffffffffff16146115a5576040517f3a81d6fc00000000000000000000000000000000000000000000000000000000815260040160405180910390fd5b6115af8383610f8b565b6115f25782826040517f7f19f48d0000000000000000000000000000000000000000000000000000000081526004016115e9929190613f4a565b60405180910390fd5b60008383600860405160200161160a939291906140fc565b60405160208183030381529060405290506000600982600a6040516020016116349392919061412d565b604051602081830303815290604052905060006116516007612564565b905060006116a287878080601f016020809104026020016040519081016040528093929190818152602001838380828437600081840152601f19601f82011690508083019250505050505050612128565b905060006116af82612572565b90506117a3604051806060016040528060318152602001614c646031913989898080601f016020809104026020016040519081016040528093929190818152602001838380828437600081840152601f19601f820116905080830192505050505050506008805461171f9061399d565b80601f016020809104026020016040519081016040528092919081815260200182805461174b9061399d565b80156117985780601f1061176d57610100808354040283529160200191611798565b820191906000526020600020905b81548152906001019060200180831161177b57829003601f168201915b5050505050866126d3565b60006117d9866117b287612775565b846040516020016117c5939291906142da565b604051602081830303815290604052612775565b90506000816040516020016117ee9190614383565b6040516020818303038152906040529050611820604051806060016040528060398152602001614c2b6039913961290d565b61185f6040518060400160405280600e81526020017f46696e616c20746f6b656e55524900000000000000000000000000000000000081525082611bb0565b611880604051806060016040528060398152602001614c956039913961290d565b61188a33866129a6565b61189485826129c4565b33600b8b8b6040516118a7929190613e1d565b908152602001604051809103902060006101000a81548173ffffffffffffffffffffffffffffffffffffffff021916908373ffffffffffffffffffffffffffffffffffffffff1602179055508989600d60008881526020019081526020016000209190611915929190612f00565b506119206007612a38565b50505050505050505050565b606061196c6040518060400160405280601f81526020017f47657474696e6720616c6c206e616d65732066726f6d20636f6e74726163740081525061290d565b60006119786007612564565b67ffffffffffffffff8111156119915761199061333b565b5b6040519080825280602002602001820160405280156119c457816020015b60608152602001906001900390816119af5790505b50905060005b6119d46007612564565b811015611b0257600d600082815260200190815260200160002080546119f99061399d565b80601f0160208091040260200160405190810160405280929190818152602001828054611a259061399d565b8015611a725780601f10611a4757610100808354040283529160200191611a72565b820191906000526020600020905b815481529060010190602001808311611a5557829003601f168201915b5050505050828281518110611a8a57611a896143a5565b5b6020026020010181905250611aef6040518060400160405280601781526020017f4e616d6520666f7220746f6b656e20256420697320257300000000000000000081525082848481518110611ae257611ae16143a5565b5b6020026020010151612a4e565b8080611afa90614403565b9150506119ca565b508091505090565b600080611b5a84848080601f016020809104026020016040519081016040528093929190818152602001838380828437600081840152601f19601f82011690508083019250505050505050612128565b905060008111611b6957600080fd5b6003811415611b83576706f05b59d3b20000915050611baa565b6004811415611b9d57670429d069189e0000915050611baa565b67016345785d8a00009150505b92915050565b611c488282604051602401611bc692919061444c565b6040516020818303038152906040527f4b5c4277000000000000000000000000000000000000000000000000000000007bffffffffffffffffffffffffffffffffffffffffffffffffffffffff19166020820180517bffffffffffffffffffffffffffffffffffffffffffffffffffffffff8381831617835250505050612aed565b5050565b60007f01ffc9a7000000000000000000000000000000000000000000000000000000007bffffffffffffffffffffffffffffffffffffffffffffffffffffffff1916827bffffffffffffffffffffffffffffffffffffffffffffffffffffffff1916149050919050565b60008073ffffffffffffffffffffffffffffffffffffffff166002600084815260200190815260200160002060009054906101000a900473ffffffffffffffffffffffffffffffffffffffff1673ffffffffffffffffffffffffffffffffffffffff1614159050919050565b600033905090565b816004600083815260200190815260200160002060006101000a81548173ffffffffffffffffffffffffffffffffffffffff021916908373ffffffffffffffffffffffffffffffffffffffff160217905550808273ffffffffffffffffffffffffffffffffffffffff16611d9d83610d11565b73ffffffffffffffffffffffffffffffffffffffff167f8c5be1e5ebec7d5bd14f71427d1e84f3dd0314c0f7b2291e5b200ac8c7c3b92560405160405180910390a45050565b6000611dee82611cb6565b611e2d576040517f08c379a0000000000000000000000000000000000000000000000000000000008152600401611e24906144f5565b60405180910390fd5b6000611e3883610d11565b90508073ffffffffffffffffffffffffffffffffffffffff168473ffffffffffffffffffffffffffffffffffffffff161480611ea757508373ffffffffffffffffffffffffffffffffffffffff16611e8f84610801565b73ffffffffffffffffffffffffffffffffffffffff16145b80611eb85750611eb7818561132f565b5b91505092915050565b8273ffffffffffffffffffffffffffffffffffffffff16611ee182610d11565b73ffffffffffffffffffffffffffffffffffffffff1614611f37576040517f08c379a0000000000000000000000000000000000000000000000000000000008152600401611f2e90614587565b60405180910390fd5b600073ffffffffffffffffffffffffffffffffffffffff168273ffffffffffffffffffffffffffffffffffffffff161415611fa7576040517f08c379a0000000000000000000000000000000000000000000000000000000008152600401611f9e90614619565b60405180910390fd5b611fb2838383612b16565b611fbd600082611d2a565b6001600360008573ffffffffffffffffffffffffffffffffffffffff1673ffffffffffffffffffffffffffffffffffffffff168152602001908152602001600020600082825461200d9190614639565b925050819055506001600360008473ffffffffffffffffffffffffffffffffffffffff1673ffffffffffffffffffffffffffffffffffffffff1681526020019081526020016000206000828254612064919061466d565b92505081905550816002600083815260200190815260200160002060006101000a81548173ffffffffffffffffffffffffffffffffffffffff021916908373ffffffffffffffffffffffffffffffffffffffff160217905550808273ffffffffffffffffffffffffffffffffffffffff168473ffffffffffffffffffffffffffffffffffffffff167fddf252ad1be2c89b69c2b068fc378daa952ba7f163c4a11628f55a4df523b3ef60405160405180910390a4612123838383612b1b565b505050565b60008060008084519050600092505b808210156122d2576000858381518110612154576121536143a5565b5b602001015160f81c60f81b9050608060f81b817effffffffffffffffffffffffffffffffffffffffffffffffffffffffffffff191610156121a35760018361219c919061466d565b92506122be565b60e060f81b817effffffffffffffffffffffffffffffffffffffffffffffffffffffffffffff191610156121e5576002836121de919061466d565b92506122bd565b60f060f81b817effffffffffffffffffffffffffffffffffffffffffffffffffffffffffffff1916101561222757600383612220919061466d565b92506122bc565b60f8801b817effffffffffffffffffffffffffffffffffffffffffffffffffffffffffffff1916101561226857600483612261919061466d565b92506122bb565b60fc60f81b817effffffffffffffffffffffffffffffffffffffffffffffffffffffffffffff191610156122aa576005836122a3919061466d565b92506122ba565b6006836122b7919061466d565b92505b5b5b5b5b5082806122ca90614403565b935050612137565b829350505050919050565b8173ffffffffffffffffffffffffffffffffffffffff168373ffffffffffffffffffffffffffffffffffffffff16141561234c576040517f08c379a00000000000000000000000000000000000000000000000000000000081526004016123439061470f565b60405180910390fd5b80600560008573ffffffffffffffffffffffffffffffffffffffff1673ffffffffffffffffffffffffffffffffffffffff16815260200190815260200160002060008473ffffffffffffffffffffffffffffffffffffffff1673ffffffffffffffffffffffffffffffffffffffff16815260200190815260200160002060006101000a81548160ff0219169083151502179055508173ffffffffffffffffffffffffffffffffffffffff168373ffffffffffffffffffffffffffffffffffffffff167f17307eab39ab6107e8899845ad3d59bd9653f200f220920489ca2b5937696c318360405161243d91906130dd565b60405180910390a3505050565b612455848484611ec1565b61246184848484612b20565b6124a0576040517f08c379a0000000000000000000000000000000000000000000000000000000008152600401612497906147a1565b60405180910390fd5b50505050565b606060405180602001604052806000815250905090565b60606124c882611cb6565b612507576040517f08c379a00000000000000000000000000000000000000000000000000000000081526004016124fe90614833565b60405180910390fd5b60006125116124a6565b90506000815111612531576040518060200160405280600081525061255c565b8061253b84612572565b60405160200161254c929190613ef9565b6040516020818303038152906040525b915050919050565b600081600001549050919050565b606060008214156125ba576040518060400160405280600181526020017f300000000000000000000000000000000000000000000000000000000000000081525090506126ce565b600082905060005b600082146125ec5780806125d590614403565b915050600a826125e59190614882565b91506125c2565b60008167ffffffffffffffff8111156126085761260761333b565b5b6040519080825280601f01601f19166020018201604052801561263a5781602001600182028036833780820191505090505b5090505b600085146126c7576001826126539190614639565b9150600a8561266291906148b3565b603061266e919061466d565b60f81b818381518110612684576126836143a5565b5b60200101907effffffffffffffffffffffffffffffffffffffffffffffffffffffffffffff1916908160001a905350600a856126c09190614882565b945061263e565b8093505050505b919050565b61276f848484846040516024016126ed94939291906148e4565b6040516020818303038152906040527f9fd009f5000000000000000000000000000000000000000000000000000000007bffffffffffffffffffffffffffffffffffffffffffffffffffffffff19166020820180517bffffffffffffffffffffffffffffffffffffffffffffffffffffffff8381831617835250505050612aed565b50505050565b6060600082519050600081141561279e5760405180602001604052806000815250915050612908565b600060036002836127af919061466d565b6127b99190614882565b60046127c5919061493e565b905060006020826127d6919061466d565b67ffffffffffffffff8111156127ef576127ee61333b565b5b6040519080825280601f01601f1916602001820160405280156128215781602001600182028036833780820191505090505b5090506000604051806060016040528060408152602001614cce604091399050600181016020830160005b868110156128c55760038101905062ffffff818a015116603f8160121c168401518060081b905060ff603f83600c1c1686015116810190508060081b905060ff603f8360061c1686015116810190508060081b905060ff603f831686015116810190508060e01b9050808452600484019350505061284c565b5060038606600181146128df57600281146128ef576128fa565b613d3d60f01b60028303526128fa565b603d60f81b60018303525b508484525050819450505050505b919050565b6129a3816040516024016129219190613191565b6040516020818303038152906040527f41304fac000000000000000000000000000000000000000000000000000000007bffffffffffffffffffffffffffffffffffffffffffffffffffffffff19166020820180517bffffffffffffffffffffffffffffffffffffffffffffffffffffffff8381831617835250505050612aed565b50565b6129c0828260405180602001604052806000815250612ca8565b5050565b6129cd82611cb6565b612a0c576040517f08c379a0000000000000000000000000000000000000000000000000000000008152600401612a0390614a0a565b60405180910390fd5b80600660008481526020019081526020016000209080519060200190612a33929190612f86565b505050565b6001816000016000828254019250508190555050565b612ae8838383604051602401612a6693929190614a2a565b6040516020818303038152906040527fa3f5c739000000000000000000000000000000000000000000000000000000007bffffffffffffffffffffffffffffffffffffffffffffffffffffffff19166020820180517bffffffffffffffffffffffffffffffffffffffffffffffffffffffff8381831617835250505050612aed565b505050565b60008151905060006a636f6e736f6c652e6c6f679050602083016000808483855afa5050505050565b505050565b505050565b6000612b418473ffffffffffffffffffffffffffffffffffffffff16612d03565b15612c9b578373ffffffffffffffffffffffffffffffffffffffff1663150b7a02612b6a611d22565b8786866040518563ffffffff1660e01b8152600401612b8c9493929190614ac4565b6020604051808303816000875af1925050508015612bc857506040513d601f19601f82011682018060405250810190612bc59190614b25565b60015b612c4b573d8060008114612bf8576040519150601f19603f3d011682016040523d82523d6000602084013e612bfd565b606091505b50600081511415612c43576040517f08c379a0000000000000000000000000000000000000000000000000000000008152600401612c3a906147a1565b60405180910390fd5b805181602001fd5b63150b7a0260e01b7bffffffffffffffffffffffffffffffffffffffffffffffffffffffff1916817bffffffffffffffffffffffffffffffffffffffffffffffffffffffff191614915050612ca0565b600190505b949350505050565b612cb28383612d26565b612cbf6000848484612b20565b612cfe576040517f08c379a0000000000000000000000000000000000000000000000000000000008152600401612cf5906147a1565b60405180910390fd5b505050565b6000808273ffffffffffffffffffffffffffffffffffffffff163b119050919050565b600073ffffffffffffffffffffffffffffffffffffffff168273ffffffffffffffffffffffffffffffffffffffff161415612d96576040517f08c379a0000000000000000000000000000000000000000000000000000000008152600401612d8d90614b9e565b60405180910390fd5b612d9f81611cb6565b15612ddf576040517f08c379a0000000000000000000000000000000000000000000000000000000008152600401612dd690614c0a565b60405180910390fd5b612deb60008383612b16565b6001600360008473ffffffffffffffffffffffffffffffffffffffff1673ffffffffffffffffffffffffffffffffffffffff1681526020019081526020016000206000828254612e3b919061466d565b92505081905550816002600083815260200190815260200160002060006101000a81548173ffffffffffffffffffffffffffffffffffffffff021916908373ffffffffffffffffffffffffffffffffffffffff160217905550808273ffffffffffffffffffffffffffffffffffffffff16600073ffffffffffffffffffffffffffffffffffffffff167fddf252ad1be2c89b69c2b068fc378daa952ba7f163c4a11628f55a4df523b3ef60405160405180910390a4612efc60008383612b1b565b5050565b828054612f0c9061399d565b90600052602060002090601f016020900481019282612f2e5760008555612f75565b82601f10612f4757803560ff1916838001178555612f75565b82800160010185558215612f75579182015b82811115612f74578235825591602001919060010190612f59565b5b509050612f82919061300c565b5090565b828054612f929061399d565b90600052602060002090601f016020900481019282612fb45760008555612ffb565b82601f10612fcd57805160ff1916838001178555612ffb565b82800160010185558215612ffb579182015b82811115612ffa578251825591602001919060010190612fdf565b5b509050613008919061300c565b5090565b5b8082111561302557600081600090555060010161300d565b5090565b6000604051905090565b600080fd5b600080fd5b60007fffffffff0000000000000000000000000000000000000000000000000000000082169050919050565b6130728161303d565b811461307d57600080fd5b50565b60008135905061308f81613069565b92915050565b6000602082840312156130ab576130aa613033565b5b60006130b984828501613080565b91505092915050565b60008115159050919050565b6130d7816130c2565b82525050565b60006020820190506130f260008301846130ce565b92915050565b600081519050919050565b600082825260208201905092915050565b60005b83811015613132578082015181840152602081019050613117565b83811115613141576000848401525b50505050565b6000601f19601f8301169050919050565b6000613163826130f8565b61316d8185613103565b935061317d818560208601613114565b61318681613147565b840191505092915050565b600060208201905081810360008301526131ab8184613158565b905092915050565b6000819050919050565b6131c6816131b3565b81146131d157600080fd5b50565b6000813590506131e3816131bd565b92915050565b6000602082840312156131ff576131fe613033565b5b600061320d848285016131d4565b91505092915050565b600073ffffffffffffffffffffffffffffffffffffffff82169050919050565b600061324182613216565b9050919050565b61325181613236565b82525050565b600060208201905061326c6000830184613248565b92915050565b61327b81613236565b811461328657600080fd5b50565b60008135905061329881613272565b92915050565b600080604083850312156132b5576132b4613033565b5b60006132c385828601613289565b92505060206132d4858286016131d4565b9150509250929050565b6000806000606084860312156132f7576132f6613033565b5b600061330586828701613289565b935050602061331686828701613289565b9250506040613327868287016131d4565b9150509250925092565b600080fd5b600080fd5b7f4e487b7100000000000000000000000000000000000000000000000000000000600052604160045260246000fd5b61337382613147565b810181811067ffffffffffffffff821117156133925761339161333b565b5b80604052505050565b60006133a5613029565b90506133b1828261336a565b919050565b600067ffffffffffffffff8211156133d1576133d061333b565b5b6133da82613147565b9050602081019050919050565b82818337600083830152505050565b6000613409613404846133b6565b61339b565b90508281526020810184848401111561342557613424613336565b5b6134308482856133e7565b509392505050565b600082601f83011261344d5761344c613331565b5b813561345d8482602086016133f6565b91505092915050565b60006020828403121561347c5761347b613033565b5b600082013567ffffffffffffffff81111561349a57613499613038565b5b6134a684828501613438565b91505092915050565b6000602082840312156134c5576134c4613033565b5b60006134d384828501613289565b91505092915050565b6134e5816131b3565b82525050565b600060208201905061350060008301846134dc565b92915050565b600061351182613216565b9050919050565b61352181613506565b82525050565b600060208201905061353c6000830184613518565b92915050565b600080fd5b600080fd5b60008083601f84011261356257613561613331565b5b8235905067ffffffffffffffff81111561357f5761357e613542565b5b60208301915083600182028301111561359b5761359a613547565b5b9250929050565b600080602083850312156135b9576135b8613033565b5b600083013567ffffffffffffffff8111156135d7576135d6613038565b5b6135e38582860161354c565b92509250509250929050565b6135f8816130c2565b811461360357600080fd5b50565b600081359050613615816135ef565b92915050565b6000806040838503121561363257613631613033565b5b600061364085828601613289565b925050602061365185828601613606565b9150509250929050565b600067ffffffffffffffff8211156136765761367561333b565b5b61367f82613147565b9050602081019050919050565b600061369f61369a8461365b565b61339b565b9050828152602081018484840111156136bb576136ba613336565b5b6136c68482856133e7565b509392505050565b600082601f8301126136e3576136e2613331565b5b81356136f384826020860161368c565b91505092915050565b6000806000806080858703121561371657613715613033565b5b600061372487828801613289565b945050602061373587828801613289565b9350506040613746878288016131d4565b925050606085013567ffffffffffffffff81111561376757613766613038565b5b613773878288016136ce565b91505092959194509250565b6000806000806040858703121561379957613798613033565b5b600085013567ffffffffffffffff8111156137b7576137b6613038565b5b6137c38782880161354c565b9450945050602085013567ffffffffffffffff8111156137e6576137e5613038565b5b6137f28782880161354c565b925092505092959194509250565b6000806040838503121561381757613816613033565b5b600061382585828601613289565b925050602061383685828601613289565b9150509250929050565b600081519050919050565b600082825260208201905092915050565b6000819050602082019050919050565b600082825260208201905092915050565b6000613888826130f8565b613892818561386c565b93506138a2818560208601613114565b6138ab81613147565b840191505092915050565b60006138c2838361387d565b905092915050565b6000602082019050919050565b60006138e282613840565b6138ec818561384b565b9350836020820285016138fe8561385c565b8060005b8581101561393a578484038952815161391b85826138b6565b9450613926836138ca565b925060208a01995050600181019050613902565b50829750879550505050505092915050565b6000602082019050818103600083015261396681846138d7565b905092915050565b7f4e487b7100000000000000000000000000000000000000000000000000000000600052602260045260246000fd5b600060028204905060018216806139b557607f821691505b602082108114156139c9576139c861396e565b5b50919050565b7f4552433732313a20617070726f76656420717565727920666f72206e6f6e657860008201527f697374656e7420746f6b656e0000000000000000000000000000000000000000602082015250565b6000613a2b602c83613103565b9150613a36826139cf565b604082019050919050565b60006020820190508181036000830152613a5a81613a1e565b9050919050565b7f4552433732313a20617070726f76616c20746f2063757272656e74206f776e6560008201527f7200000000000000000000000000000000000000000000000000000000000000602082015250565b6000613abd602183613103565b9150613ac882613a61565b604082019050919050565b60006020820190508181036000830152613aec81613ab0565b9050919050565b7f4552433732313a20617070726f76652063616c6c6572206973206e6f74206f7760008201527f6e6572206e6f7220617070726f76656420666f7220616c6c0000000000000000602082015250565b6000613b4f603883613103565b9150613b5a82613af3565b604082019050919050565b60006020820190508181036000830152613b7e81613b42565b9050919050565b7f4552433732313a207472616e736665722063616c6c6572206973206e6f74206f60008201527f776e6572206e6f7220617070726f766564000000000000000000000000000000602082015250565b6000613be1603183613103565b9150613bec82613b85565b604082019050919050565b60006020820190508181036000830152613c1081613bd4565b9050919050565b600081905092915050565b50565b6000613c32600083613c17565b9150613c3d82613c22565b600082019050919050565b6000613c5382613c25565b9150819050919050565b7f4661696c656420746f207769746864726177204d617469630000000000000000600082015250565b6000613c93601883613103565b9150613c9e82613c5d565b602082019050919050565b60006020820190508181036000830152613cc281613c86565b9050919050565b7f4552433732313a206f776e657220717565727920666f72206e6f6e657869737460008201527f656e7420746f6b656e0000000000000000000000000000000000000000000000602082015250565b6000613d25602983613103565b9150613d3082613cc9565b604082019050919050565b60006020820190508181036000830152613d5481613d18565b9050919050565b7f4552433732313a2062616c616e636520717565727920666f7220746865207a6560008201527f726f206164647265737300000000000000000000000000000000000000000000602082015250565b6000613db7602a83613103565b9150613dc282613d5b565b604082019050919050565b60006020820190508181036000830152613de681613daa565b9050919050565b600081905092915050565b6000613e048385613ded565b9350613e118385846133e7565b82840190509392505050565b6000613e2a828486613df8565b91508190509392505050565b7f45524337323155524953746f726167653a2055524920717565727920666f722060008201527f6e6f6e6578697374656e7420746f6b656e000000000000000000000000000000602082015250565b6000613e92603183613103565b9150613e9d82613e36565b604082019050919050565b60006020820190508181036000830152613ec181613e85565b9050919050565b6000613ed3826130f8565b613edd8185613ded565b9350613eed818560208601613114565b80840191505092915050565b6000613f058285613ec8565b9150613f118284613ec8565b91508190509392505050565b6000613f298385613103565b9350613f368385846133e7565b613f3f83613147565b840190509392505050565b60006020820190508181036000830152613f65818486613f1d565b90509392505050565b600081519050613f7d816131bd565b92915050565b600060208284031215613f9957613f98613033565b5b6000613fa784828501613f6e565b91505092915050565b7f4e6f7420656e6f756768204d6174696320706169640000000000000000000000600082015250565b6000613fe6601583613103565b9150613ff182613fb0565b602082019050919050565b6000602082019050818103600083015261401581613fd9565b9050919050565b7f2e00000000000000000000000000000000000000000000000000000000000000600082015250565b6000614052600183613ded565b915061405d8261401c565b600182019050919050565b60008190508160005260206000209050919050565b6000815461408a8161399d565b6140948186613ded565b945060018216600081146140af57600181146140c0576140f3565b60ff198316865281860193506140f3565b6140c985614068565b60005b838110156140eb578154818901526001820191506020810190506140cc565b838801955050505b50505092915050565b6000614109828587613df8565b915061411482614045565b9150614120828461407d565b9150819050949350505050565b6000614139828661407d565b91506141458285613ec8565b9150614151828461407d565b9150819050949350505050565b7f7b226e616d65223a202200000000000000000000000000000000000000000000600082015250565b6000614194600a83613ded565b915061419f8261415e565b600a82019050919050565b7f222c20226465736372697074696f6e223a20224120646f6d61696e206f6e207460008201527f686520737570657220646f6d61696e207365727669636520222c2022696d616760208201527f65223a2022646174613a696d6167652f7376672b786d6c3b6261736536342c00604082015250565b600061422c605f83613ded565b9150614237826141aa565b605f82019050919050565b7f222c226c656e677468223a220000000000000000000000000000000000000000600082015250565b6000614278600c83613ded565b915061428382614242565b600c82019050919050565b7f227d000000000000000000000000000000000000000000000000000000000000600082015250565b60006142c4600283613ded565b91506142cf8261428e565b600282019050919050565b60006142e582614187565b91506142f18286613ec8565b91506142fc8261421f565b91506143088285613ec8565b91506143138261426b565b915061431f8284613ec8565b915061432a826142b7565b9150819050949350505050565b7f646174613a6170706c69636174696f6e2f6a736f6e3b6261736536342c000000600082015250565b600061436d601d83613ded565b915061437882614337565b601d82019050919050565b600061438e82614360565b915061439a8284613ec8565b915081905092915050565b7f4e487b7100000000000000000000000000000000000000000000000000000000600052603260045260246000fd5b7f4e487b7100000000000000000000000000000000000000000000000000000000600052601160045260246000fd5b600061440e826131b3565b91507fffffffffffffffffffffffffffffffffffffffffffffffffffffffffffffffff821415614441576144406143d4565b5b600182019050919050565b600060408201905081810360008301526144668185613158565b9050818103602083015261447a8184613158565b90509392505050565b7f4552433732313a206f70657261746f7220717565727920666f72206e6f6e657860008201527f697374656e7420746f6b656e0000000000000000000000000000000000000000602082015250565b60006144df602c83613103565b91506144ea82614483565b604082019050919050565b6000602082019050818103600083015261450e816144d2565b9050919050565b7f4552433732313a207472616e736665722066726f6d20696e636f72726563742060008201527f6f776e6572000000000000000000000000000000000000000000000000000000602082015250565b6000614571602583613103565b915061457c82614515565b604082019050919050565b600060208201905081810360008301526145a081614564565b9050919050565b7f4552433732313a207472616e7366657220746f20746865207a65726f2061646460008201527f7265737300000000000000000000000000000000000000000000000000000000602082015250565b6000614603602483613103565b915061460e826145a7565b604082019050919050565b60006020820190508181036000830152614632816145f6565b9050919050565b6000614644826131b3565b915061464f836131b3565b925082821015614662576146616143d4565b5b828203905092915050565b6000614678826131b3565b9150614683836131b3565b9250827fffffffffffffffffffffffffffffffffffffffffffffffffffffffffffffffff038211156146b8576146b76143d4565b5b828201905092915050565b7f4552433732313a20617070726f766520746f2063616c6c657200000000000000600082015250565b60006146f9601983613103565b9150614704826146c3565b602082019050919050565b60006020820190508181036000830152614728816146ec565b9050919050565b7f4552433732313a207472616e7366657220746f206e6f6e20455243373231526560008201527f63656976657220696d706c656d656e7465720000000000000000000000000000602082015250565b600061478b603283613103565b91506147968261472f565b604082019050919050565b600060208201905081810360008301526147ba8161477e565b9050919050565b7f4552433732314d657461646174613a2055524920717565727920666f72206e6f60008201527f6e6578697374656e7420746f6b656e0000000000000000000000000000000000602082015250565b600061481d602f83613103565b9150614828826147c1565b604082019050919050565b6000602082019050818103600083015261484c81614810565b9050919050565b7f4e487b7100000000000000000000000000000000000000000000000000000000600052601260045260246000fd5b600061488d826131b3565b9150614898836131b3565b9250826148a8576148a7614853565b5b828204905092915050565b60006148be826131b3565b91506148c9836131b3565b9250826148d9576148d8614853565b5b828206905092915050565b600060808201905081810360008301526148fe8187613158565b905081810360208301526149128186613158565b905081810360408301526149268185613158565b905061493560608301846134dc565b95945050505050565b6000614949826131b3565b9150614954836131b3565b9250817fffffffffffffffffffffffffffffffffffffffffffffffffffffffffffffffff048311821515161561498d5761498c6143d4565b5b828202905092915050565b7f45524337323155524953746f726167653a2055524920736574206f66206e6f6e60008201527f6578697374656e7420746f6b656e000000000000000000000000000000000000602082015250565b60006149f4602e83613103565b91506149ff82614998565b604082019050919050565b60006020820190508181036000830152614a23816149e7565b9050919050565b60006060820190508181036000830152614a448186613158565b9050614a5360208301856134dc565b8181036040830152614a658184613158565b9050949350505050565b600081519050919050565b600082825260208201905092915050565b6000614a9682614a6f565b614aa08185614a7a565b9350614ab0818560208601613114565b614ab981613147565b840191505092915050565b6000608082019050614ad96000830187613248565b614ae66020830186613248565b614af360408301856134dc565b8181036060830152614b058184614a8b565b905095945050505050565b600081519050614b1f81613069565b92915050565b600060208284031215614b3b57614b3a613033565b5b6000614b4984828501614b10565b91505092915050565b7f4552433732313a206d696e7420746f20746865207a65726f2061646472657373600082015250565b6000614b88602083613103565b9150614b9382614b52565b602082019050919050565b60006020820190508181036000830152614bb781614b7b565b9050919050565b7f4552433732313a20746f6b656e20616c7265616479206d696e74656400000000600082015250565b6000614bf4601c83613103565b9150614bff82614bbe565b602082019050919050565b60006020820190508181036000830152614c2381614be7565b905091905056fe0a2d2d2d2d2d2d2d2d2d2d2d2d2d2d2d2d2d2d2d2d2d2d2d2d2d2d2d2d2d2d2d2d2d2d2d2d2d2d2d2d2d2d2d2d2d2d2d2d2d2d2d2d2d2d2d2d5265676973746572696e672025732e2573206f6e2074686520636f6e7472616374207769746820746f6b656e49442025642d2d2d2d2d2d2d2d2d2d2d2d2d2d2d2d2d2d2d2d2d2d2d2d2d2d2d2d2d2d2d2d2d2d2d2d2d2d2d2d2d2d2d2d2d2d2d2d2d2d2d2d2d2d2d2d0a4142434445464748494a4b4c4d4e4f505152535455565758595a6162636465666768696a6b6c6d6e6f707172737475767778797a303132333435363738392b2fa26469706673582212207e5b90e62b8763135d4007d1f1093869fbc533bc2ef9378ed917b90a5bb8e1cb64736f6c634300080a00333c73766720786d6c6e733d22687474703a2f2f7777772e77332e6f72672f323030302f737667222077696474683d2232373022206865696768743d22323730222066696c6c3d226e6f6e65223e3c706174682066696c6c3d2275726c282342292220643d224d302030683237307632373048307a222f3e3c646566733e3c66696c7465722069643d22412220636f6c6f722d696e746572706f6c6174696f6e2d66696c746572733d2273524742222066696c746572556e6974733d227573657253706163654f6e55736522206865696768743d22323730222077696474683d22323730223e3c666544726f70536861646f772064783d2230222064793d22312220737464446576696174696f6e3d22322220666c6f6f642d6f7061636974793d222e323235222077696474683d223230302522206865696768743d2232303025222f3e3c2f66696c7465723e3c2f646566733e3c7061746820643d224d37322e3836332034322e393439632d2e3636382d2e3338372d312e3432362d2e35392d322e3139372d2e3539732d312e3532392e3230342d322e3139372e35396c2d31302e30383120362e3033322d362e383520332e3933342d31302e30383120362e303332632d2e3636382e3338372d312e3432362e35392d322e3139372e3539732d312e3532392d2e3230342d322e3139372d2e35396c2d382e3031332d342e37323161342e353220342e35322030203020312d312e3538392d312e363136632d2e3338342d2e3636352d2e3539342d312e3431382d2e3630382d322e313837762d392e3331632d2e3031332d2e3737352e3138352d312e3533382e3537322d322e32303861342e323520342e323520302030203120312e3632352d312e3539356c372e3838342d342e3539632e3636382d2e33383720312e3432362d2e353920322e3139372d2e353973312e3532392e32303420322e3139372e35396c372e38383420342e353961342e353220342e353220302030203120312e35383920312e363136632e3338342e3636352e35393420312e3431382e36303820322e31383776362e3033326c362e38352d342e303635762d362e303332632e3031332d2e3737352d2e3138352d312e3533382d2e3537322d322e32303861342e323520342e32352030203020302d312e3632352d312e3539354c34312e3435362032342e3539632d2e3636382d2e3338372d312e3432362d2e35392d322e3139372d2e3539732d312e3532392e3230342d322e3139372e35396c2d31342e38363420382e36353561342e323520342e32352030203020302d312e36323520312e353935632d2e3338372e36372d2e35383520312e3433342d2e35373220322e3230387631372e343431632d2e3031332e3737352e31383520312e3533382e35373220322e32303861342e323520342e323520302030203020312e36323520312e3539356c31342e38363420382e363535632e3636382e33383720312e3432362e353920322e3139372e353973312e3532392d2e32303420322e3139372d2e35396c31302e3038312d352e39303120362e38352d342e3036352031302e3038312d352e393031632e3636382d2e33383720312e3432362d2e353920322e3139372d2e353973312e3532392e32303420322e3139372e35396c372e38383420342e353961342e353220342e353220302030203120312e35383920312e363136632e3338342e3636352e35393420312e3431382e36303820322e31383776392e333131632e3031332e3737352d2e31383520312e3533382d2e35373220322e32303861342e323520342e32352030203020312d312e36323520312e3539356c2d372e38383420342e373231632d2e3636382e3338372d312e3432362e35392d322e3139372e3539732d312e3532392d2e3230342d322e3139372d2e35396c2d372e3838342d342e353961342e353220342e35322030203020312d312e3538392d312e363136632d2e3338352d2e3636352d2e3539342d312e3431382d2e3630382d322e313837762d362e3033326c2d362e383520342e30363576362e303332632d2e3031332e3737352e31383520312e3533382e35373220322e32303861342e323520342e323520302030203020312e36323520312e3539356c31342e38363420382e363535632e3636382e33383720312e3432362e353920322e3139372e353973312e3532392d2e32303420322e3139372d2e35396c31342e3836342d382e363535632e3635372d2e33393420312e3230342d2e393520312e3538392d312e363136732e3539342d312e3431382e3630392d322e3138375635352e353338632e3031332d2e3737352d2e3138352d312e3533382d2e3537322d322e32303861342e323520342e32352030203020302d312e3632352d312e3539356c2d31342e3939332d382e3738367a222066696c6c3d2223666666222f3e3c646566733e3c6c696e6561724772616469656e742069643d2242222078313d2230222079313d2230222078323d22323730222079323d2232373022206772616469656e74556e6974733d227573657253706163654f6e557365223e3c73746f702073746f702d636f6c6f723d2223636235656565222f3e3c73746f70206f66667365743d2231222073746f702d636f6c6f723d2223306364376534222073746f702d6f7061636974793d222e3939222f3e3c2f6c696e6561724772616469656e743e3c2f646566733e3c7465787420783d2233322e352220793d223233312220666f6e742d73697a653d223237222066696c6c3d2223666666222066696c7465723d2275726c282341292220666f6e742d66616d696c793d22506c7573204a616b617274612053616e732c44656a6156752053616e732c4e6f746f20436f6c6f7220456d6f6a692c4170706c6520436f6c6f7220456d6f6a692c73616e732d73657269662220666f6e742d7765696768743d22626f6c64223e",
    "linkReferences": {},
    "deployedLinkReferences": {}
}